:100000000C9467000C9484000C9484000C9484007D
:100010000C9484000C9484000C9484000C94840050
:100020000C9484000C9484000C9484000C94840040
:100030000C9484000C9439030C940A030C948400EF
:100040000C9484000C9484000C9484000C94840020
:100050000C948400F901F901F901F901F9010F0289
:100060000F021102FB01FB01FB01FB01FD01FD0180
:10007000FD01FD010F020F02FF01FF01FF01FF0162
:10008000FF010F020F0201020102010201020F0231
:100090000F020F02030203020302030203020F0214
:1000A0000F020502070207020702070209020902FE
:1000B000090209020F020F020B020B020B020B02D4
:1000C0000B020F020F020D020D020D020D02112490
:1000D0001FBECFE5D8E0DEBFCDBF10E0A0E6B0E0A8
:1000E000E6EAFFE002C005900D92A83BB107D9F700
:1000F00021E0A8EBB0E001C01D92AC35B207E1F7FA
:100100000E946F050C94D1070C940000D098D198F0
:100110003F983E9A3D9A329A319A3098379A08958C
:1001200097B18F71907E982B97B9369A3699FECFFA
:1001300085B108958D9A8FB580688FBD8FB5806227
:100140008FBD8FB58F7E8FBD8FB58F7B8FBD8FB5E8
:1001500082608FBD8EB580618EBD8EB588608EBD8C
:1001600086B597B580E29EE497BD86BD8CB59DB5FA
:100170001DBC1CBC8EB58B7F8EBD8EB582608EBDC6
:100180008EB58E7F8EBD0895682F70E080E090E080
:100190000E94C50625E83BEE41EE50E40E9451075F
:1001A00020E030E046E154E40E94C6050E94970634
:1001B0007BBD6ABD0895882351F0BB9A83B78064E4
:1001C00083BF83B7886083BF83B7856083BF66239F
:1001D00051F08F9A85B5806485BD85B5886085BDF1
:1001E00085B5876085BD0895811105C0C39883B723
:1001F0008F7D83BF08959CB78CBF83B7806283BF18
:100200000895811105C0979885B58F7D85BD0895A6
:1002100093B583BD85B5806285BD0895FC0171836A
:10022000608342831382148281E08583168208955D
:10023000FC01868181111AC08381A081B181A80F40
:10024000B11D6C9315824381242F30E0828190E0B0
:1002500001972817390711F4138202C04F5F4383B7
:1002600093818481981302C081E086830895FC0104
:10027000858181111BC09481292F30E0A081B1813B
:10028000A20FB31F8C911682428150E04150510958
:100290002417350711F4148202C09F5F94832481D0
:1002A0009381291304C091E09583089580E0089517
:1002B000FC0184818383168281E085830895FC019B
:1002C00085810895FC018681089585BB85E88A951E
:1002D000F1F70000DF9885E88A95F1F70000DF9AD2
:1002E0000895DD9881E00E9465018FE99FE0019704
:1002F000F1F700C00000DD9A0895813011F482E02A
:1003000001C080E0DD9884600E946501DD9A089557
:10031000813011F080E001C084E0613009F4826036
:10032000413009F48160DD9888600E946501DD9AA2
:100330000895CF93DF93C62FD42F98E395BBDD9814
:10034000DE989FEF94BB9AB3906E9ABBEFE1FEE408
:100350003197F1F700C00000DF98EFE0F7E2319746
:10036000F1F700C00000DF9AEFE0F7E23197F1F714
:1003700000C00000DF98E7ECF0E03197F1F700C033
:100380000000DF9AE7ECF0E03197F1F700C00000E1
:10039000DF98EFEFF5E03197F1F700C00000DF9A4A
:1003A0000E947D014D2F6C2F81E00E9488010E94E8
:1003B0007101DF91CF910895613011F090E001C09B
:1003C00090E4DD98890F80680E946501DD9A0895A8
:1003D000DD9A803218F00E946501089590E0FC01DA
:1003E000E05CF109ED33F105D0F4E65DFF4F0C94CC
:1003F000B40781E417C085E415C089E413C08FE415
:1004000011C085E50FC081E60DC083E60BC085E60F
:1004100009C089E607C08FE605C085E703C085EA05
:1004200001C083E40E946501089540E061E081E03D
:100430000E9499011092B8001092B90008950E948C
:1004400071011092B80008958F70089582958F7091
:1004500008951F93CF93DF93182FC091B8008C2F6E
:100460000E942602D82F113049F4CF3118F0109293
:10047000B8000DC0CF5FC093B80009C0C11104C05F
:100480008FE18093B80003C0C150C093B800809141
:10049000B8000E94260291E08D1301C090E0892FE0
:1004A000DF91CF911F910895CF93DF93833049F16E
:1004B00020F4813081F098F40AC08530F1F198F190
:1004C000863009F443C0873009F04BC045C081E055
:1004D0000E94290246C080E00E94290242C0C091C9
:1004E000B8008C2F0E942602811107C0C05FC09304
:1004F000B80081E08093B90034C0C051C093B80007
:1005000030C0C091B8008C2F0E942602882339F099
:10051000CF70C093B80081E08093B90022C0C05F63
:10052000C093B8001EC08091B8000E942602829538
:10053000807F815F8093B80014C08091B8000E94D2
:1005400026028295807F8093B8000BC08091B8000E
:100550008F708093B80005C08091B800805F809351
:10056000B800C091B8008C2F0E942602D82F8C2F83
:100570000E9424026D2F0E94DC01DF91CF9108952B
:10058000CF93DF93C82F803268F48A3019F08D3012
:1005900029F504C083E00E94540220C085E00E9437
:1005A00054021CC08091B900813021F40E94710175
:1005B0001092B9008C2F0E94E80181E00E9429026C
:1005C000813061F4C091B8008C2F0E942602D82F90
:1005D0008C2F0E9424026D2F0E94DC01DF91CF91AD
:1005E00008951F93CF93DF93EC018881882351F006
:1005F00010E00E94C0021F5FFE01E10FF11D80812B
:100600008111F7CFDF91CF911F910895559A0895E9
:10061000559808951F920F920FB60F9211242F93A1
:100620003F934F935F936F937F938F939F93AF937A
:10063000BF93EF93FF938AE391E00E9437018CB957
:100640008AE391E00E945F01813011F40E94080367
:10065000FF91EF91BF91AF919F918F917F916F919A
:100660005F914F913F912F910F900FBE0F901F9070
:1006700018951F920F920FB60F9211242F933F934C
:100680004F935F936F937F938F939F93AF93BF939A
:10069000EF93FF936CB181E491E00E941801FF9108
:1006A000EF91BF91AF919F918F917F916F915F91EA
:1006B0004F913F912F910F900FBE0F901F90189563
:1006C000E82FF0E0EE0FFF1FE956FF4F808189B958
:1006D000818180BD089586E880BD88E98AB91BB80C
:1006E00040E46AEF70E081E491E00E940E0140E492
:1006F0006AEB70E08AE391E00E940E0182E00E94C2
:1007000060030895FF920F931F93CF93DF938C01A3
:10071000FC018081882351F1F12C8AE391E00E9451
:1007200062018130D1F30E940803E801CF0DD11D91
:10073000888181110DC012C068818AE391E00E9416
:100740001801F394E801CF0DD11D8881882331F081
:100750008AE391E00E946201882371F30E940603FC
:10076000F801EF0DF11D80818111D7CFDF91CF917D
:100770001F910F91FF900895579881E491E00E9496
:100780003701579A089581E491E00E945801089535
:1007900081E491E00E945F010895DC018C9188233F
:1007A00049F080E08F5FFD01E80FF11D908191110C
:1007B000F9CF089580E0089580538A3008F080E0F2
:1007C00008958F929F92AF92BF92CF92DF92EF9255
:1007D000FF921F93CF93DF93EC010E94CD03182F5C
:1007E000882371F1812C912C5401C12CD12C7601DC
:1007F000C394FE01E10FF11D319780810E94DC035B
:10080000A82FB0E0A70196010E94C607860E971E8A
:10081000A81EB91E1150CC0CDD1CEE1CFF1CD7010C
:10082000C601880F991FAA1FBB1F880F991FAA1FF7
:10083000BB1FC80ED91EEA1EFB1E1111DACF03C062
:10084000812C912C5401682D792D8A2D9B2DDF91BF
:10085000CF911F91FF90EF90DF90CF90BF90AF901E
:100860009F908F9008950E9415020E94860061E07B
:1008700081E00E94DB000E946B030E94C3030E9480
:100880009A008FB780688FBF82E00E94600381B7B3
:100890008A5F81BF8A9A92982FEF8EE994E2215065
:1008A00080409040E1F700C00000929A2FEF89E667
:1008B00098E1215080409040E1F700C0000080E6C0
:1008C00090E00E9482032FEF88E09DE3215080405A
:1008D0009040E1F700C0000080E790E00E948203B2
:1008E0000E941F0289EA90E00E94F1022FEF89E640
:1008F00098E1215080409040E1F700C000000E9444
:100900001F02B89AB99ABA9ABB9ABC9A10924F0130
:1009100080E38093570180E880935B011092480147
:1009200081E0809349011092500110925801809308
:100930005901C09A10925A0110924A01089580916B
:1009400051018B3531F4C19A82E0809359011092A4
:100950004F010895909151019D3559F180914F01BA
:10096000833030F4E82FF0E0E55BFE4F90831DC04C
:10097000282F2350233030F4E82FF0E0E15BFE4FC6
:10098000908313C0863088F0923421F491E09093E4
:100990005A010BC010925A019C3421F491E39093B8
:1009A000570103C090E3909357018F5F80934F01ED
:1009B000089510924F0183E0809359010895109299
:1009C0004E01109255010E94C30381E080935901AA
:1009D0008BE491E00E94E10360935B0182E591E08A
:1009E0000E94E103609348010895682F70E080E061
:1009F00090E00E94C5062FEA33E24EE65EE30E94D5
:100A0000510723E333E343E550E40E942A0620E044
:100A100030E04FE753E40E9451070E949706862F6B
:100A20000895CF92DF92EF92FF92CF93DF93F82E4B
:100A3000C62F862F0E94F504D82F6F2D70E080E01E
:100A400090E00E94C30620E030E040E251E40E94C2
:100A500051076B017C016D2F70E080E090E00E94F7
:100A6000C3069B01AC01C701B6010E942A066B01B7
:100A70007C016C2F70E080E090E00E94C5069B0135
:100A8000AC01C701B6010E9451070E949206862F51
:100A9000DF91CF91FF90EF90DF90CF90089583E0AA
:100AA0000E94900069E00E941105809356018F33E7
:100AB000A8F48C3380F481E0809358018091500138
:100AC000843610F4C49A01C0C498809150018F5F9D
:100AD00080935001089510925801C49A08950E947D
:100AE00033048091580181112FC080915A018823CD
:100AF00021F080E00E94F40023C0809157018133EF
:100B000061F4809148010E94F40080E00E9401019C
:100B10008091480180934A0113C0803389F4809109
:100B200048010E94010180915B018054813820F0CE
:100B300087E30E94F40004C080914A010E94F400FF
:100B400080915B010E94C4000E94C803811118C0FB
:100B5000809149018130A1F00E94BC038093510132
:100B600080915901823039F0833041F0813041F475
:100B70000E949F0405C00E94AA0402C00E94DF04D4
:100B80000E944F0510924901ACCF5058BB27AA27AD
:100B90000ED04DC13ED130F043D120F031F49F3F13
:100BA00011F41EF433C10EF4E095E7FB29C1E92FDF
:100BB0004FD180F3BA17620773078407950718F0BF
:100BC00071F49EF567C10EF4E0950B2EBA2FA02D9F
:100BD0000B01B90190010C01CA01A0011124FF27EA
:100BE000591B99F0593F50F4503E68F11A16F040E5
:100BF000A22F232F342F4427585FF3CF46953795E4
:100C00002795A795F0405395C9F77EF41F16BA0BA8
:100C1000620B730B840BBAF09150A1F0FF0FBB1F56
:100C2000661F771F881FC2F70EC0BA0F621F731F9F
:100C3000841F48F4879577956795B795F7959E3FFC
:100C400008F0B3CF9395880F08F09927EE0F97958A
:100C5000879508950CD0EBC0E3D040F0DAD030F0A7
:100C600021F45F3F19F0CCC0511115C1CFC0F0D0B5
:100C700098F39923C9F35523B1F3951B550BBB2763
:100C8000AA2762177307840738F09F5F5F4F220F10
:100C9000331F441FAA1FA9F333D00E2E3AF0E0E809
:100CA00030D091505040E695001CCAF729D0FE2F55
:100CB00027D0660F771F881FBB1F261737074807E7
:100CC000AB07B0E809F0BB0B802DBF01FF2793589D
:100CD0005F4F2AF09E3F510568F092C0DCC05F3F35
:100CE000ECF3983EDCF3869577956795B795F79585
:100CF0009F5FC9F7880F911D9695879597F908957D
:100D0000E1E0660F771F881FBB1F62177307840718
:100D1000BA0720F0621B730B840BBA0BEE1F88F727
:100D2000E095089504D06894B111B5C0089598D0A5
:100D300088F09F5790F0B92F9927B751A0F0D1F0C4
:100D4000660F771F881F991F1AF0BA95C9F712C04E
:100D5000B13081F09FD0B1E008959CC0672F782F0B
:100D60008827B85F39F0B93FCCF3869577956795BA
:100D7000B395D9F73EF490958095709561957F4F26
:100D80008F4F9F4F0895E89409C097FB3EF49095CC
:100D90008095709561957F4F8F4F9F4F9923A9F054
:100DA000F92F96E9BB279395F695879577956795E3
:100DB000B795F111F8CFFAF4BB0F11F460FF1BC027
:100DC0006F5F7F4F8F4F9F4F16C0882311F096E9BA
:100DD00011C0772321F09EE8872F762F05C0662368
:100DE00071F096E8862F70E060E02AF09A95660F21
:100DF000771F881FDAF7880F9695879597F90895DA
:100E000097F99F6780E870E060E008959FEF80ECBD
:100E1000089500240A941616170618060906089560
:100E200000240A9412161306140605060895092EC6
:100E30000394000C11F4882352F0BB0F40F4BF2B35
:100E400011F460FF04C06F5F7F4F8F4F9F4F089575
:100E500057FD9058440F551F59F05F3F71F047956B
:100E6000880F97FB991F61F09F3F79F08795089550
:100E7000121613061406551FF2CF4695F1DF08C06F
:100E8000161617061806991FF1CF8695710561058C
:100E900008940895E894BB2766277727CB0197F934
:100EA00008950BD0C4CFB5DF28F0BADF18F0952332
:100EB00009F0A6CFABCF1124EECFCADFA0F3959FE8
:100EC000D1F3950F50E0551F629FF001729FBB2731
:100ED000F00DB11D639FAA27F00DB11DAA1F649FDD
:100EE0006627B00DA11D661F829F2227B00DA11D90
:100EF000621F739FB00DA11D621F839FA00D611D16
:100F0000221F749F3327A00D611D231F849F600D36
:100F1000211D822F762F6A2F11249F5750408AF06F
:100F2000E1F088234AF0EE0FFF1FBB1F661F771FFB
:100F3000881F91505040A9F79E3F510570F060CF37
:100F4000AACF5F3FECF3983EDCF3869577956795E3
:100F5000B795F795E7959F5FC1F7FE2B880F911D19
:100F60009695879597F90895EE0FFF1F0590F491D8
:100F7000E02D0994A29FB001B39FC001A39F01D0AF
:100F8000B29F700D811D1124911D08950E94BA0712
:100F9000A59F900DB49F900DA49F800D911D1124CD
:060FA0000895F894FFCF54
:100FA60041542B4349504D4F44453D310D0A0000F5
:100FB60041542B43495053544152543D22554450B9
:100FC600222C22302E302E302E30222C3132332C51
:100FD6003435360D0A0000CF006700330019000CC7
:100FE600000600030001000100436F6E6E65637426
:080FF60065642E203A29000079
:00000001FF
