S01400005769666952656365697665722E737265634C
S11300000C9467000C9484000C9484000C94840079
S11300100C9484000C9484000C9484000C9484004C
S11300200C9484000C9484000C9484000C9484003C
S11300300C9484000C9442030C9413030C948400D9
S11300400C9484000C9484000C9484000C9484001C
S11300500C948400EF01EF01EF01EF01EF010502C1
S113006005020702F101F101F101F101F301F301CC
S1130070F301F30105020502F501F501F501F501AE
S1130080F50105020502F701F701F701F701050281
S113009005020502F901F901F901F901F901050265
S11300A00502FB01FD01FD01FD01FD01FF01FF0151
S11300B0FF01FF0105020502010201020102010222
S11300C001020502050203020302030203021124D2
S11300D01FBECFE5D8E0DEBFCDBF10E0A0E6B0E0A4
S11300E0EAEFFDE002C005900D92A83EB107D9F7F2
S11300F021E0A8EEB0E001C01D92A738B207E1F7F5
S11301000E9412050C94FB060C940000D098D19820
S11301103F983E9A3D9A329A319A3098379A089588
S11301208D9A8FB580688FBD8FB580628FBD8FB576
S11301308F7E8FBD8FB58F7B8FBD8FB582608FBD56
S11301408EB580618EBD8EB588608EBD86B597B53F
S113015080E29EE497BD86BD8CB59DB51DBC1CBCDC
S11301608EB58B7F8EBD8EB582608EBD8EB58E7F33
S11301708EBD0895682F70E080E090E00E94EF0546
S113018025E83BEE41EE50E40E947B0620E030E09F
S113019046E154E40E945D050E94C1057BBD6ABD31
S11301A00895882351F0BB9A83B7806483BF83B7D3
S11301B0886083BF83B7856083BF662351F08F9ABD
S11301C085B5806485BD85B5886085BD85B5876046
S11301D085BD0895811105C0C39883B78F7D83BF02
S11301E008959CB78CBF83B7806283BF0895811143
S11301F005C0979885B58F7D85BD089593B583BD5A
S113020085B5806285BD0895FC0171836083428356
S11302101382148281E0858316820895FC0186810D
S113022081111AC08381A081B181A80FB11D6C9383
S113023015824381242F30E0828190E001972817B2
S1130240390711F4138202C04F5F43839381848181
S1130250981302C081E086830895FC018581811191
S11302601BC09481292F30E0A081B181A20FB31F5C
S11302708C911682428150E0415051092417350770
S113028011F4148202C09F5F948324819381291303
S113029004C091E09583089580E00895FC01848171
S11302A08383168281E085830895FC018581089506
S11302B0FC018681089585BB85E88A95F1F70000E5
S11302C0DF9885E88A95F1F70000DF9A0895DD98B4
S11302D081E00E945B018FE99FE00197F1F700C084
S11302E00000DD9A0895813011F482E001C080E0BD
S11302F0DD9884600E945B01DD9A0895813011F0DD
S113030080E001C084E0613009F48260413009F486
S11303108160DD9888600E945B01DD9A0895CF9327
S1130320DF93C62FD42F98E395BBDD98DE989FEF1B
S113033094BB9AB3906E9ABBEFE1FEE43197F1F768
S113034000C00000DF98EFE0F7E23197F1F700C05A
S11303500000DF9AEFE0F7E23197F1F700C0000008
S1130360DF98E7ECF0E03197F1F700C00000DF9A86
S1130370E7ECF0E03197F1F700C00000DF98EFEF11
S1130380F5E03197F1F700C00000DF9A0E94730195
S11303904D2F6C2F81E00E947E010E946701DF9146
S11303A0CF910895613011F090E001C090E4DD98A0
S11303B0890F80680E945B01DD9A0895DD9A80327E
S11303C018F00E945B01089590E0FC01E05CF109E3
S11303D0ED33F105D0F4E65DFF4F0C94DE0681E4C5
S11303E017C085E415C089E413C08FE411C085E506
S11303F00FC081E60DC083E60BC085E609C089E61F
S113040007C08FE605C085E703C085EA01C083E421
S11304100E945B01089540E061E081E00E948F0149
S11304201092E8001092E90008950E94670110926A
S1130430E8000895CF93DF93C82FD62F803150F46E
S1130440623040F40E94D20180E1D89FC00D112493
S1130450C093E800DF91CF9108958F70089582953D
S11304608F7008951F93CF93DF93182FC091E800E6
S11304708C2F0E942F02D82F113049F4CF3118F05D
S11304801092E8000DC0CF5FC093E80009C0C1110D
S113049004C08FE18093E80003C0C150C093E8001A
S11304A08091E8000E942F0291E08D1301C090E03A
S11304B0892FDF91CF911F910895CF93DF938330DC
S11304C049F120F4813081F098F40AC08530F1F1CB
S11304D098F1863009F443C0873009F04BC045C019
S11304E081E00E94320246C080E00E94320242C093
S11304F0C091E8008C2F0E942F02811107C0C05FB9
S1130500C093E80081E08093E90034C0C051C093F7
S1130510E80030C0C091E8008C2F0E942F0288238D
S113052039F0CF70C093E80081E08093E90022C0E5
S1130530C05FC093E8001EC08091E8000E942F02B3
S11305408295807F815F8093E80014C08091E800E9
S11305500E942F028295807F8093E8000BC08091D7
S1130560E8008F708093E80005C08091E800805F08
S11305708093E800C091E8008C2F0E942F02D82FAE
S11305808C2F0E942D026D2F0E94D201DF91CF91FA
S11305900895CF93DF93C82F803268F48A3019F01E
S11305A08D3029F504C083E00E945D0220C085E0FF
S11305B00E945D021CC08091E900813021F40E94F8
S11305C067011092E9008C2F0E94DE0181E00E94F5
S11305D03202813061F4C091E8008C2F0E942F0216
S11305E0D82F8C2F0E942D026D2F0E94D201DF91F3
S11305F0CF9108951F93CF93DF93EC0188818823D3
S113060051F010E00E94C9021F5FFE01E10FF11DCD
S113061080818111F7CFDF91CF911F910895559A71
S11306200895559808951F920F920FB60F921124B2
S11306302F933F934F935F936F937F938F939F93E6
S1130640AF93BF93EF93FF938AE691E00E942D014D
S11306508CB98AE691E00E945501813011F40E9420
S11306601103FF91EF91BF91AF919F918F917F9172
S11306706F915F914F913F912F910F900FBE0F900B
S11306801F9018951F920F920FB60F9211242F935B
S11306903F934F935F936F937F938F939F93AF9306
S11306A0BF93EF93FF936CB181E791E00E940E0139
S11306B0FF91EF91BF91AF919F918F917F916F9136
S11306C05F914F913F912F910F900FBE0F901F900C
S11306D01895E82FF0E0EE0FFF1FE956FF4F8081D9
S11306E089B9818180BD089586E880BD88E98AB989
S11306F01BB840E46AE271E081E791E00E940401E2
S113070040E46AEE70E08AE691E00E94040182E02F
S11307100E9469030895FF920F931F93CF93DF9371
S11307208C01FC018081882351F1F12C8AE691E04F
S11307300E9458018130D1F30E941103E801CF0DCA
S1130740D11D888181110DC012C068818AE691E0B3
S11307500E940E01F394E801CF0DD11D88818823F6
S113076031F08AE691E00E945801882371F30E94D7
S11307700F03F801EF0DF11D80818111D7CFDF91B7
S1130780CF911F910F91FF900895579881E791E0C1
S11307900E942D01579A089581E791E00E944E012D
S11307A0089581E791E00E9455010895DC018C9140
S11307B0882349F080E08F5FFD01E80FF11D9081EF
S11307C09111F9CF089580E0089580538A3008F09C
S11307D080E008958F929F92AF92BF92CF92DF9262
S11307E0EF92FF921F93CF93DF93EC010E94D60305
S11307F0182F882371F1812C912C5401C12CD12CF8
S11308007601C394FE01E10FF11D319780810E94AE
S1130810E503A82FB0E0A70196010E94F006860E1A
S1130820971EA81EB91E1150CC0CDD1CEE1CFF1C1B
S1130830D701C601880F991FAA1FBB1F880F991FD4
S1130840AA1FBB1FC80ED91EEA1EFB1E1111DACF48
S113085003C0812C912C5401682D792D8A2D9B2D58
S1130860DF91CF911F91FF90EF90DF90CF90BF90D9
S1130870AF909F908F9008950E94CC0381B78A5FB8
S113088081BF8A9A92982FEF84E39CE021508040A4
S11308909040E1F700C00000929A2FEF89E698E1BA
S11308A0215080409040E1F700C0000080E690E0D5
S11308B00E948B032FEF88E09DE3215080409040FD
S11308C0E1F700C0000080E790E00E948B030E94E3
S11308D0150289EA90E00E94FA022FEF84E39CE07B
S11308E0215080409040E1F700C000000E941502B2
S11308F0B89AB99ABA9ABB9ABC9A10927F0180E3CB
S11309008093860180E8809379011092840181E0CC
S11309108093780188BB0895809185018B3539F4E3
S113092083E088BB82E08093780110927F01089570
S1130930909185019D3519F180917F01833030F4C8
S1130940E82FF0E0E558FE4F908315C0282F235080
S1130950233030F4E82FF0E0E358FE4F90830BC0CF
S1130960863048F09C3421F491E39093860103C0CF
S113097090E3909386018F5F80937F010895109296
S11309807F0183E080937801089510927E01109294
S113099083010E94CC030E94150260E080E00E9463
S11309A01A0287EB90E00E94FA028BE791E00E9422
S11309B0FA0260E08BE00E941A0280918601813382
S11309C021F48EEB90E00E94FA028091860180333C
S11309D021F483EC90E00E94FA0261E080E00E943E
S11309E01A0289EC90E00E94FA0280E891E00E94E9
S11309F0FA022FEF80E792E0215080409040E1F727
S1130A0000C0000081E0809378018BE791E00E94B0
S1130A10EA036093790180E891E00E94EA0360931D
S1130A20840108950E940B020E94860061E081E027
S1130A300E94D1000E9474030E94CC030E94900083
S1130A408FB780688FBF82E00E9469030E943C04D4
S1130A5080918601813341F4809184010E94EA00EF
S1130A6080E00E94F70006C0803321F48091840165
S1130A700E94F700809179010E94BA000E94D1037C
S1130A808111E6CF0E94C50380938501809178018E
S1130A90823039F0833041F0813049F40E948C0473
S1130AA0D7CF0E949804D4CF0E94C504D1CF80ED43
S1130AB090E00E94FA02CCCF5058BB27AA270ED050
S1130AC0E0C0D1D030F0D6D020F031F49F3F11F403
S1130AD01EF4C6C00EF4E095E7FBBCC0E92FE2D0DB
S1130AE080F3BA17620773078407950718F071F447
S1130AF09EF5FAC00EF4E0950B2EBA2FA02D0B0133
S1130B00B90190010C01CA01A0011124FF27591B4E
S1130B1099F0593F50F4503E68F11A16F040A22F54
S1130B20232F342F4427585FF3CF469537952795C5
S1130B30A795F0405395C9F77EF41F16BA0B620BC4
S1130B40730B840BBAF09150A1F0FF0FBB1F661F0B
S1130B50771F881FC2F70EC0BA0F621F731F841F4E
S1130B6048F4879577956795B795F7959E3F08F074
S1130B70B3CF9395880F08F09927EE0F9795879533
S1130B80089598D088F09F5790F0B92F9927B751BE
S1130B90A0F0D1F0660F771F881F991F1AF0BA953D
S1130BA0C9F712C0B13081F09FD0B1E008959CC064
S1130BB0672F782F8827B85F39F0B93FCCF3869533
S1130BC077956795B395D9F73EF490958095709590
S1130BD061957F4F8F4F9F4F0895E89409C097FB0D
S1130BE03EF490958095709561957F4F8F4F9F4F00
S1130BF09923A9F0F92F96E9BB279395F695879544
S1130C0077956795B795F111F8CFFAF4BB0F11F406
S1130C1060FF1BC06F5F7F4F8F4F9F4F16C08823AD
S1130C2011F096E911C0772321F09EE8872F762FE3
S1130C3005C0662371F096E8862F70E060E02AF024
S1130C409A95660F771F881FDAF7880F9695879510
S1130C5097F9089597F99F6780E870E060E0089538
S1130C609FEF80EC089500240A94161617061806C0
S1130C700906089500240A9412161306140605069C
S1130C800895092E0394000C11F4882352F0BB0F2D
S1130C9040F4BF2B11F460FF04C06F5F7F4F8F4F90
S1130CA09F4F089557FD9058440F551F59F05F3FCB
S1130CB071F04795880F97FB991F61F09F3F79F07A
S1130CC087950895121613061406551FF2CF4695FC
S1130CD0F1DF08C0161617061806991FF1CF86957E
S1130CE07105610508940895E894BB276627772762
S1130CF0CB0197F908950BD0C4CFB5DF28F0BADF44
S1130D0018F0952309F0A6CFABCF1124EECFCADF9C
S1130D10A0F3959FD1F3950F50E0551F629FF0010A
S1130D20729FBB27F00DB11D639FAA27F00DB11D63
S1130D30AA1F649F6627B00DA11D661F829F2227EC
S1130D40B00DA11D621F739FB00DA11D621F839F73
S1130D50A00D611D221F749F3327A00D611D231F49
S1130D60849F600D211D822F762F6A2F11249F5797
S1130D7050408AF0E1F088234AF0EE0FFF1FBB1FBA
S1130D80661F771F881F91505040A9F79E3F510559
S1130D9070F060CFAACF5F3FECF3983EDCF386950A
S1130DA077956795B795F795E7959F5FC1F7FE2B04
S1130DB0880F911D9695879597F90895EE0FFF1F5B
S1130DC00590F491E02D0994A29FB001B39FC00156
S1130DD0A39F01D0B29F700D811D1124911D089510
S1130DE00E94E406A59F900DB49F900DA49F800DD2
S10D0DF0911D11240895F894FFCF1B
S1130DFA41542B4349504D4F44453D310D0A00009F
S1130E0A41542B43495053544152543D2255445062
S1130E1A222C22302E302E302E30222C3132332CFA
S1130E2A3435360D0A0000CF006700330019000C70
S1130E3A000600030001000100436F6E6E656374CF
S1130E4A65642E203A2900484F52203A20004C4922
S1130E5A465400535045454400564552203A200012
S1130E6A4572726F7220696E206D616368696E657E
S10B0E7A20737461746500002B
S9030000FC
