S01400005769666952656365697665722E737265634C
S11300000C942A000C9447000C9447000C9447006D
S11300100C9447000C9447000C9447000C94470040
S11300200C9447000C9447000C9447000C94470030
S11300300C9447000C945B010C942C010C94470025
S11300400C9447000C9447000C9447000C94470010
S11300500C94470011241FBECFE5D8E0DEBFCDBF0E
S113006010E0A0E6B0E0EAECFBE002C005900D92DF
S1130070AA3AB107D9F721E0AAEAB0E001C01D927B
S1130080AC34B207E1F70E9487030C94E3050C94A7
S11300900000D098D1983F983E9A3D9A329A319A6E
S11300A03098379A089597B18F71907E982B97B9AD
S11300B0369A3699FECF85B108958D9A8FB58068AA
S11300C08FBD8FB580628FBD8FB58F7E8FBD8FB58D
S11300D08F7B8FBD8FB582608FBD8EB580618EBDE5
S11300E08EB588608EBD86B597B580E29EE497BDD7
S11300F086BD8CB59DB51DBC1CBC8EB58B7F8EBDDD
S11301008EB582608EBD8EB58E7F8EBD0895682FAC
S113011070E080E090E00E94DD0425E83BEE41EED3
S113012050E40E94690520E030E046E154E40E9476
S1130130DE030E94AF047BBD6ABD0895882351F09D
S1130140BB9A83B7806483BF83B7886083BF83B758
S1130150856083BF662351F08F9A85B5806485BD21
S113016085B5886085BD85B5876085BD0895811195
S113017005C0C39883B78F7D83BF08959CB78CBF98
S113018083B7806283BF0895811105C0979885B5B0
S11301908F7D85BD089593B583BD85B5806285BD8A
S11301A00895FC017183608342831382148281E089
S11301B0858316820895FC01868181111AC083818A
S11301C0A081B181A80FB11D6C9315824381242FA6
S11301D030E0828190E001972817390711F41382E7
S11301E002C04F5F438393818481981302C081E0EE
S11301F086830895FC01858181111BC09481292F78
S113020030E0A081B181A20FB31F8C91168242818C
S113021050E0415051092417350711F4148202C0EB
S11302209F5F948324819381291304C091E0958373
S1130230089580E00895FC0184818383168281E01F
S113024085830895FC0185810895FC0186810895C4
S1130250559A0895559808951F920F920FB60F92CC
S113026011242F933F934F935F936F937F938F93B7
S11302709F93AF93BF93EF93FF938AE291E00E9421
S1130280FA008CB98AE291E00E942201813011F4D3
S11302900E942A01FF91EF91BF91AF919F918F919D
S11302A07F916F915F914F913F912F910F900FBE6E
S11302B00F901F9018951F920F920FB60F92112452
S11302C02F933F934F935F936F937F938F939F935A
S11302D0AF93BF93EF93FF936CB181E391E00E94DE
S11302E0DB00FF91EF91BF91AF919F918F917F912F
S11302F06F915F914F913F912F910F900FBE0F908F
S11303001F901895E82FF0E0EE0FFF1FE956FF4FFE
S1130310808189B9818180BD089586E880BD88E99E
S11303208AB91BB840E46AEE70E081E391E00E9470
S1130330D10040E46AEA70E08AE291E00E94D100D0
S113034082E00E9482010895FF920F931F93CF933E
S1130350DF938C01FC018081882351F1F12C8AE226
S113036091E00E9425018130D1F30E942A01E80125
S1130370CF0DD11D888181110DC012C068818AE220
S113038091E00E94DB00F394E801CF0DD11D888138
S1130390882331F08AE291E00E942501882371F3D9
S11303A00E942801F801EF0DF11D80818111D7CF42
S11303B0DF91CF911F910F91FF900895579881E39A
S11303C091E00E94FA00579A089581E391E00E9417
S11303D01B01089581E391E00E9422010895DC014C
S11303E08C91882349F080E08F5FFD01E80FF11DB7
S11303F090819111F9CF089580E0089580538A3057
S113040008F080E008958F929F92AF92BF92CF92AE
S1130410DF92EF92FF921F93CF93DF93EC010E9440
S1130420EF01182F882371F1812C912C5401C12CD8
S1130430D12C7601C394FE01E10FF11D3197808127
S11304400E94FE01A82FB0E0A70196010E94D805E2
S1130450860E971EA81EB91E1150CC0CDD1CEE1C76
S1130460FF1CD701C601880F991FAA1FBB1F880F45
S1130470991FAA1FBB1FC80ED91EEA1EFB1E11110D
S1130480DACF03C0812C912C5401682D792D8A2D4B
S11304909B2DDF91CF911F91FF90EF90DF90CF9034
S11304A0BF90AF909F908F9008950E94490061E0A3
S11304B081E00E949E000E948D010E94E5010E943D
S11304C05D008FB780688FBF82E00E94820181B790
S11304D08A5F81BF8A9A92982FEF8EE994E2215025
S11304E080409040E1F700C00000929A2FEF89E627
S11304F098E1215080409040E1F700C0000080E680
S113050090E00E94A4012FEF88E09DE321508040F9
S11305109040E1F700C0000080E790E00E94A40151
S11305202FEF89E698E1215080409040E1F700C028
S11305300000B89AB99ABA9ABB9ABC9A10923F0131
S113054080E38093470180E880934B011092380147
S113055081E0809339011092400110924801809308
S11305604901C09A10924A0110923A01089580916B
S113057041018B3531F4C19A82E080934901109294
S11305803F010895909141019D3559F180913F01BA
S1130590833030F4E82FF0E0E55CFE4F90831DC01B
S11305A0282F2350233030F4E82FF0E0E15CFE4F95
S11305B0908313C0863088F0923421F491E09093B4
S11305C04A010BC010924A019C3421F491E39093A8
S11305D0470103C090E3909347018F5F80933F01ED
S11305E0089510923F0183E0809349010895109289
S11305F03E01109245010E94E50181E0809349018A
S11306008BE391E00E94030260934B0182E491E04A
S11306100E940302609338010895682F70E080E01F
S113062090E00E94DD042FEA33E24EE65EE30E948E
S1130630690523E333E343E550E40E94420420E0E8
S113064030E04FE753E40E9469050E94AF04862F0F
S11306500895CF92DF92EF92FF92CF93DF93F82E1B
S1130660C62F862F0E940D03D82F6F2D70E080E0D7
S113067090E00E94DB0420E030E040E251E40E947C
S113068069056B017C016D2F70E080E090E00E94B1
S1130690DB049B01AC01C701B6010E9442046B015B
S11306A07C016C2F70E080E090E00E94DD049B01EF
S11306B0AC01C701B6010E9469050E94AA04862FF5
S11306C0DF91CF91FF90EF90DF90CF90089583E07A
S11306D00E94530069E00E942903809346018F33EE
S11306E0A8F48C3380F481E0809348018091400128
S11306F0843610F4C49A01C0C498809140018F5F7D
S113070080934001089510924801C49A08950E946C
S113071055028091480181112FC080914A0188239C
S113072021F080E00E94B70023C08091470181330B
S113073061F4809138010E94B70080E00E94C400F7
S11307408091380180933A0113C0803389F48091F9
S113075038010E94C40080914B018054813820F0FC
S113076087E30E94B70004C080913A010E94B70059
S113077080914B010E9487000E94EA01811118C0F8
S1130780809139018130A1F00E94DE018093410102
S113079080914901823039F0833041F0813041F455
S11307A00E94B70205C00E94C20202C00E94F70262
S11307B00E94670310923901ACCF5058BB27AA2777
S11307C00ED04DC13ED130F043D120F031F49F3FE3
S11307D011F41EF433C10EF4E095E7FB29C1E92FAF
S11307E04FD180F3BA17620773078407950718F08F
S11307F071F49EF567C10EF4E0950B2EBA2FA02D6F
S11308000B01B90190010C01CA01A0011124FF27B9
S1130810591B99F0593F50F4503E68F11A16F040B4
S1130820A22F232F342F4427585FF3CF46953795B3
S11308302795A795F0405395C9F77EF41F16BA0B78
S1130840620B730B840BBAF09150A1F0FF0FBB1F26
S1130850661F771F881FC2F70EC0BA0F621F731F6F
S1130860841F48F4879577956795B795F7959E3FCC
S113087008F0B3CF9395880F08F09927EE0F97955A
S1130880879508950CD0EBC0E3D040F0DAD030F077
S113089021F45F3F19F0CCC0511115C1CFC0F0D085
S11308A098F39923C9F35523B1F3951B550BBB2733
S11308B0AA2762177307840738F09F5F5F4F220FE0
S11308C0331F441FAA1FA9F333D00E2E3AF0E0E8D9
S11308D030D091505040E695001CCAF729D0FE2F25
S11308E027D0660F771F881FBB1F261737074807B7
S11308F0AB07B0E809F0BB0B802DBF01FF2793586D
S11309005F4F2AF09E3F510568F092C0DCC05F3F04
S1130910ECF3983EDCF3869577956795B795F79554
S11309209F5FC9F7880F911D9695879597F908954C
S1130930E1E0660F771F881FBB1F621773078407E8
S1130940BA0720F0621B730B840BBA0BEE1F88F7F7
S1130950E095089504D06894B111B5C0089598D075
S113096088F09F5790F0B92F9927B751A0F0D1F094
S1130970660F771F881F991F1AF0BA95C9F712C01E
S1130980B13081F09FD0B1E008959CC0672F782FDB
S11309908827B85F39F0B93FCCF38695779567958A
S11309A0B395D9F73EF490958095709561957F4FF6
S11309B08F4F9F4F0895E89409C097FB3EF490959C
S11309C08095709561957F4F8F4F9F4F9923A9F024
S11309D0F92F96E9BB279395F695879577956795B3
S11309E0B795F111F8CFFAF4BB0F11F460FF1BC0F7
S11309F06F5F7F4F8F4F9F4F16C0882311F096E98A
S1130A0011C0772321F09EE8872F762F05C0662337
S1130A1071F096E8862F70E060E02AF09A95660FF0
S1130A20771F881FDAF7880F9695879597F90895A9
S1130A3097F99F6780E870E060E008959FEF80EC8D
S1130A40089500240A941616170618060906089530
S1130A5000240A9412161306140605060895092E96
S1130A600394000C11F4882352F0BB0F40F4BF2B05
S1130A7011F460FF04C06F5F7F4F8F4F9F4F089545
S1130A8057FD9058440F551F59F05F3F71F047953B
S1130A90880F97FB991F61F09F3F79F08795089520
S1130AA0121613061406551FF2CF4695F1DF08C03F
S1130AB0161617061806991FF1CF8695710561055C
S1130AC008940895E894BB2766277727CB0197F904
S1130AD008950BD0C4CFB5DF28F0BADF18F0952302
S1130AE009F0A6CFABCF1124EECFCADFA0F3959FB8
S1130AF0D1F3950F50E0551F629FF001729FBB2701
S1130B00F00DB11D639FAA27F00DB11DAA1F649FAC
S1130B106627B00DA11D661F829F2227B00DA11D5F
S1130B20621F739FB00DA11D621F839FA00D611DE5
S1130B30221F749F3327A00D611D231F849F600D06
S1130B40211D822F762F6A2F11249F5750408AF03F
S1130B50E1F088234AF0EE0FFF1FBB1F661F771FCB
S1130B60881F91505040A9F79E3F510570F060CF07
S1130B70AACF5F3FECF3983EDCF3869577956795B3
S1130B80B795F795E7959F5FC1F7FE2B880F911DE9
S1130B909695879597F90895A29FB001B39FC001D8
S1130BA0A39F01D0B29F700D811D1124911D089542
S1130BB00E94CC05A59F900DB49F900DA49F800D1D
S10D0BC0911D11240895F894FFCF4D
S1130BCA41542B4349504D4F44453D310D0A0000D1
S1130BDA41542B43495053544152543D2255445095
S1130BEA222C22302E302E302E30222C3132332C2D
S1130BFA3435360D0A0000CF006700330019000CA3
S10D0C0A00060003000100010000D1
S9030000FC
